{
  "abi": [
    {
      "inputs": [
        {
          "internalType": "uint256",
          "name": "_priceInZorbs",
          "type": "uint256"
        },
        {
          "internalType": "uint256",
          "name": "_priceInEth",
          "type": "uint256"
        }
      ],
      "stateMutability": "nonpayable",
      "type": "constructor"
    },
    {
      "inputs": [],
      "name": "MinterNotAuthorized",
      "type": "error"
    },
    {
      "inputs": [],
      "name": "TransferUnsuccessful",
      "type": "error"
    },
    {
      "inputs": [],
      "name": "WrongPrice",
      "type": "error"
    },
    {
      "inputs": [],
      "name": "MINTER_ROLE",
      "outputs": [
        {
          "internalType": "bytes32",
          "name": "",
          "type": "bytes32"
        }
      ],
      "stateMutability": "view",
      "type": "function"
    },
    {
      "inputs": [],
      "name": "ZORB_ADDRESS",
      "outputs": [
        {
          "internalType": "contract ZorbNFT",
          "name": "",
          "type": "address"
        }
      ],
      "stateMutability": "view",
      "type": "function"
    },
    {
      "inputs": [
        {
          "internalType": "address",
          "name": "zoraDrop",
          "type": "address"
        },
        {
          "internalType": "address",
          "name": "mintRecipient",
          "type": "address"
        },
        {
          "internalType": "uint256",
          "name": "quantity",
          "type": "uint256"
        }
      ],
      "name": "mintWithZorbs",
      "outputs": [],
      "stateMutability": "payable",
      "type": "function"
    },
    {
      "inputs": [],
      "name": "priceInEth",
      "outputs": [
        {
          "internalType": "uint256",
          "name": "",
          "type": "uint256"
        }
      ],
      "stateMutability": "view",
      "type": "function"
    },
    {
      "inputs": [],
      "name": "priceInZorbs",
      "outputs": [
        {
          "internalType": "uint256",
          "name": "",
          "type": "uint256"
        }
      ],
      "stateMutability": "view",
      "type": "function"
    }
  ],
  "bytecode": {
    "object": "0x60c06040527ff0887ba65ee2024ea881d91b74c2450ef19e1557f03bed3ea9f16b037cbe2dc960805273ca21d4228cdcc68d4e23807e5e370c07577dd15260a05234801561004c57600080fd5b5060405161058438038061058483398101604081905261006b91610079565b60009190915560015561009d565b6000806040838503121561008c57600080fd5b505080516020909101519092909150565b60805160a0516104b66100ce60003960008181606101526101e501526000818160b2015261013201526104b66000f3fe60806040526004361061004a5760003560e01c8063cb5a5b491461004f578063d5391393146100a0578063efe29733146100e2578063fdd760ea146100f7578063fde05d3a1461010d575b600080fd5b34801561005b57600080fd5b506100837f000000000000000000000000000000000000000000000000000000000000000081565b6040516001600160a01b0390911681526020015b60405180910390f35b3480156100ac57600080fd5b506100d47f000000000000000000000000000000000000000000000000000000000000000081565b604051908152602001610097565b6100f56100f0366004610402565b610123565b005b34801561010357600080fd5b506100d460015481565b34801561011957600080fd5b506100d460005481565b604051632474521560e21b81527f000000000000000000000000000000000000000000000000000000000000000060048201523060248201526001600160a01b038416906391d14854906044016020604051808303816000875af115801561018f573d6000803e3d6000fd5b505050506040513d601f19601f820116820180604052508101906101b3919061043e565b6101d057604051632d1f393f60e01b815260040160405180910390fd5b6040516370a0823160e01b81523360048201527f00000000000000000000000000000000000000000000000000000000000000006001600160a01b0316906370a0823190602401602060405180830381865afa158015610234573d6000803e3d6000fd5b505050506040513d601f19601f820116820180604052508101906102589190610467565b600054111561036d5760015434146102835760405163f7760f2560e01b815260040160405180910390fd5b60405163e58306f960e01b81526001600160a01b0383811660048301526024820183905284169063e58306f9906044016020604051808303816000875af11580156102d2573d6000803e3d6000fd5b505050506040513d601f19601f820116820180604052508101906102f69190610467565b506000836001600160a01b03163460405160006040518083038185875af1925050503d8060008114610344576040519150601f19603f3d011682016040523d82523d6000602084013e610349565b606091505b505090508061036b576040516328dc5c3360e01b815260040160405180910390fd5b505b60405163e58306f960e01b81526001600160a01b0383811660048301526024820183905284169063e58306f9906044016020604051808303816000875af11580156103bc573d6000803e3d6000fd5b505050506040513d601f19601f820116820180604052508101906103e09190610467565b50505050565b80356001600160a01b03811681146103fd57600080fd5b919050565b60008060006060848603121561041757600080fd5b610420846103e6565b925061042e602085016103e6565b9150604084013590509250925092565b60006020828403121561045057600080fd5b8151801515811461046057600080fd5b9392505050565b60006020828403121561047957600080fd5b505191905056fea2646970667358221220b23d59f815e71ee351e7d0d5ca14acb91e7dc47261bedc504371a840b55da18c64736f6c634300080a0033",
    "linkReferences": {}
  },
  "methodIdentifiers": {
    "MINTER_ROLE()": "d5391393",
    "ZORB_ADDRESS()": "cb5a5b49",
    "mintWithZorbs(address,address,uint256)": "efe29733",
    "priceInEth()": "fdd760ea",
    "priceInZorbs()": "fde05d3a"
  },
  "id": 23
}