{
  "abi": [
    {
      "inputs": [
        {
          "internalType": "contract IPublicSharedMetadata",
          "name": "_sharedMetadata",
          "type": "address"
        }
      ],
      "stateMutability": "nonpayable",
      "type": "constructor"
    },
    {
      "anonymous": false,
      "inputs": [
        {
          "indexed": true,
          "internalType": "address",
          "name": "owner",
          "type": "address"
        },
        {
          "indexed": true,
          "internalType": "address",
          "name": "approved",
          "type": "address"
        },
        {
          "indexed": true,
          "internalType": "uint256",
          "name": "tokenId",
          "type": "uint256"
        }
      ],
      "name": "Approval",
      "type": "event"
    },
    {
      "anonymous": false,
      "inputs": [
        {
          "indexed": true,
          "internalType": "address",
          "name": "owner",
          "type": "address"
        },
        {
          "indexed": true,
          "internalType": "address",
          "name": "operator",
          "type": "address"
        },
        {
          "indexed": false,
          "internalType": "bool",
          "name": "approved",
          "type": "bool"
        }
      ],
      "name": "ApprovalForAll",
      "type": "event"
    },
    {
      "anonymous": false,
      "inputs": [
        {
          "indexed": true,
          "internalType": "address",
          "name": "previousOwner",
          "type": "address"
        },
        {
          "indexed": true,
          "internalType": "address",
          "name": "newOwner",
          "type": "address"
        }
      ],
      "name": "OwnershipTransferred",
      "type": "event"
    },
    {
      "anonymous": false,
      "inputs": [
        {
          "indexed": true,
          "internalType": "address",
          "name": "from",
          "type": "address"
        },
        {
          "indexed": true,
          "internalType": "address",
          "name": "to",
          "type": "address"
        },
        {
          "indexed": true,
          "internalType": "uint256",
          "name": "tokenId",
          "type": "uint256"
        }
      ],
      "name": "Transfer",
      "type": "event"
    },
    {
      "inputs": [
        {
          "internalType": "address[]",
          "name": "to",
          "type": "address[]"
        }
      ],
      "name": "airdrop",
      "outputs": [],
      "stateMutability": "nonpayable",
      "type": "function"
    },
    {
      "inputs": [
        {
          "internalType": "address",
          "name": "to",
          "type": "address"
        },
        {
          "internalType": "uint256",
          "name": "tokenId",
          "type": "uint256"
        }
      ],
      "name": "approve",
      "outputs": [],
      "stateMutability": "nonpayable",
      "type": "function"
    },
    {
      "inputs": [
        {
          "internalType": "address",
          "name": "owner",
          "type": "address"
        }
      ],
      "name": "balanceOf",
      "outputs": [
        {
          "internalType": "uint256",
          "name": "",
          "type": "uint256"
        }
      ],
      "stateMutability": "view",
      "type": "function"
    },
    {
      "inputs": [
        {
          "internalType": "uint256",
          "name": "tokenId",
          "type": "uint256"
        }
      ],
      "name": "getApproved",
      "outputs": [
        {
          "internalType": "address",
          "name": "",
          "type": "address"
        }
      ],
      "stateMutability": "view",
      "type": "function"
    },
    {
      "inputs": [
        {
          "internalType": "uint256",
          "name": "tokenId",
          "type": "uint256"
        }
      ],
      "name": "getZorbRenderAddress",
      "outputs": [
        {
          "internalType": "address",
          "name": "",
          "type": "address"
        }
      ],
      "stateMutability": "view",
      "type": "function"
    },
    {
      "inputs": [
        {
          "internalType": "address",
          "name": "user",
          "type": "address"
        }
      ],
      "name": "gradientForAddress",
      "outputs": [
        {
          "internalType": "bytes[5]",
          "name": "",
          "type": "bytes[5]"
        }
      ],
      "stateMutability": "pure",
      "type": "function"
    },
    {
      "inputs": [
        {
          "internalType": "address",
          "name": "owner",
          "type": "address"
        },
        {
          "internalType": "address",
          "name": "operator",
          "type": "address"
        }
      ],
      "name": "isApprovedForAll",
      "outputs": [
        {
          "internalType": "bool",
          "name": "",
          "type": "bool"
        }
      ],
      "stateMutability": "view",
      "type": "function"
    },
    {
      "inputs": [],
      "name": "mint",
      "outputs": [],
      "stateMutability": "nonpayable",
      "type": "function"
    },
    {
      "inputs": [],
      "name": "mintIsOpen",
      "outputs": [
        {
          "internalType": "bool",
          "name": "",
          "type": "bool"
        }
      ],
      "stateMutability": "view",
      "type": "function"
    },
    {
      "inputs": [],
      "name": "name",
      "outputs": [
        {
          "internalType": "string",
          "name": "",
          "type": "string"
        }
      ],
      "stateMutability": "view",
      "type": "function"
    },
    {
      "inputs": [],
      "name": "owner",
      "outputs": [
        {
          "internalType": "address",
          "name": "",
          "type": "address"
        }
      ],
      "stateMutability": "view",
      "type": "function"
    },
    {
      "inputs": [
        {
          "internalType": "uint256",
          "name": "tokenId",
          "type": "uint256"
        }
      ],
      "name": "ownerOf",
      "outputs": [
        {
          "internalType": "address",
          "name": "",
          "type": "address"
        }
      ],
      "stateMutability": "view",
      "type": "function"
    },
    {
      "inputs": [],
      "name": "renounceOwnership",
      "outputs": [],
      "stateMutability": "nonpayable",
      "type": "function"
    },
    {
      "inputs": [
        {
          "internalType": "address",
          "name": "from",
          "type": "address"
        },
        {
          "internalType": "address",
          "name": "to",
          "type": "address"
        },
        {
          "internalType": "uint256",
          "name": "tokenId",
          "type": "uint256"
        }
      ],
      "name": "safeTransferFrom",
      "outputs": [],
      "stateMutability": "nonpayable",
      "type": "function"
    },
    {
      "inputs": [
        {
          "internalType": "address",
          "name": "from",
          "type": "address"
        },
        {
          "internalType": "address",
          "name": "to",
          "type": "address"
        },
        {
          "internalType": "uint256",
          "name": "tokenId",
          "type": "uint256"
        },
        {
          "internalType": "bytes",
          "name": "_data",
          "type": "bytes"
        }
      ],
      "name": "safeTransferFrom",
      "outputs": [],
      "stateMutability": "nonpayable",
      "type": "function"
    },
    {
      "inputs": [
        {
          "internalType": "address",
          "name": "operator",
          "type": "address"
        },
        {
          "internalType": "bool",
          "name": "approved",
          "type": "bool"
        }
      ],
      "name": "setApprovalForAll",
      "outputs": [],
      "stateMutability": "nonpayable",
      "type": "function"
    },
    {
      "inputs": [
        {
          "internalType": "address[]",
          "name": "marketPlaces",
          "type": "address[]"
        },
        {
          "internalType": "bool",
          "name": "isKnown",
          "type": "bool"
        }
      ],
      "name": "setKnownMarketplaces",
      "outputs": [],
      "stateMutability": "nonpayable",
      "type": "function"
    },
    {
      "inputs": [
        {
          "internalType": "bytes4",
          "name": "interfaceId",
          "type": "bytes4"
        }
      ],
      "name": "supportsInterface",
      "outputs": [
        {
          "internalType": "bool",
          "name": "",
          "type": "bool"
        }
      ],
      "stateMutability": "view",
      "type": "function"
    },
    {
      "inputs": [],
      "name": "symbol",
      "outputs": [
        {
          "internalType": "string",
          "name": "",
          "type": "string"
        }
      ],
      "stateMutability": "view",
      "type": "function"
    },
    {
      "inputs": [
        {
          "internalType": "uint256",
          "name": "tokenId",
          "type": "uint256"
        }
      ],
      "name": "tokenURI",
      "outputs": [
        {
          "internalType": "string",
          "name": "",
          "type": "string"
        }
      ],
      "stateMutability": "view",
      "type": "function"
    },
    {
      "inputs": [],
      "name": "totalSupply",
      "outputs": [
        {
          "internalType": "uint256",
          "name": "",
          "type": "uint256"
        }
      ],
      "stateMutability": "view",
      "type": "function"
    },
    {
      "inputs": [
        {
          "internalType": "address",
          "name": "from",
          "type": "address"
        },
        {
          "internalType": "address",
          "name": "to",
          "type": "address"
        },
        {
          "internalType": "uint256",
          "name": "tokenId",
          "type": "uint256"
        }
      ],
      "name": "transferFrom",
      "outputs": [],
      "stateMutability": "nonpayable",
      "type": "function"
    },
    {
      "inputs": [
        {
          "internalType": "address",
          "name": "newOwner",
          "type": "address"
        }
      ],
      "name": "transferOwnership",
      "outputs": [],
      "stateMutability": "nonpayable",
      "type": "function"
    },
    {
      "inputs": [
        {
          "internalType": "address",
          "name": "user",
          "type": "address"
        }
      ],
      "name": "zorbForAddress",
      "outputs": [
        {
          "internalType": "string",
          "name": "",
          "type": "string"
        }
      ],
      "stateMutability": "view",
      "type": "function"
    }
  ],
  "bytecode": {
    "object": "0x60a06040523480156200001157600080fd5b5060405162003991380380620039918339810160408190526200003491620001e1565b60408051808201825260058152645a6f72627360d81b6020808301918252835180850190945260048452632d27a92160e11b9084015281519192916200007d916000916200013b565b508051620000939060019060208401906200013b565b505050620000b0620000aa620000dc60201b60201c565b620000e0565b6001600160a01b038116608052620000d5600962000132602090811b62000dcd17901c565b5062000250565b3390565b600680546001600160a01b038381166001600160a01b0319831681179093556040519116919082907f8be0079c531659141344cd1fd0a4f28419497f9722a3daafe3b4186f6b6457e090600090a35050565b80546001019055565b828054620001499062000213565b90600052602060002090601f0160209004810192826200016d5760008555620001b8565b82601f106200018857805160ff1916838001178555620001b8565b82800160010185558215620001b8579182015b82811115620001b85782518255916020019190600101906200019b565b50620001c6929150620001ca565b5090565b5b80821115620001c65760008155600101620001cb565b600060208284031215620001f457600080fd5b81516001600160a01b03811681146200020c57600080fd5b9392505050565b600181811c908216806200022857607f821691505b602082108114156200024a57634e487b7160e01b600052602260045260246000fd5b50919050565b6080516137176200027a60003960008181610ae801528181610b630152610c5801526137176000f3fe608060405234801561001057600080fd5b50600436106101585760003560e01c8063715018a6116100c3578063aa1152ab1161007c578063aa1152ab146102d1578063b88d4fde146102d9578063c87b56dd146102ec578063de909942146102ff578063e985e9c514610312578063f2fde38b1461034e57600080fd5b8063715018a614610277578063729ad39e1461027f5780638da5cb5b1461029257806391557ac4146102a357806395d89b41146102b6578063a22cb465146102be57600080fd5b806318160ddd1161011557806318160ddd1461020257806323b872dd1461021857806342842e0e1461022b5780636352211e1461023e5780636411fb451461025157806370a082311461026457600080fd5b806301ffc9a71461015d57806303ff85ff1461018557806306fdde03146101a5578063081812fc146101ba578063095ea7b3146101e55780631249c58b146101fa575b600080fd5b61017061016b3660046127d3565b610361565b60405190151581526020015b60405180910390f35b610198610193366004612805565b6103b3565b60405161017c919061287a565b6101ad6103c4565b60405161017c91906128c7565b6101cd6101c83660046128da565b610456565b6040516001600160a01b03909116815260200161017c565b6101f86101f33660046128f3565b6104f0565b005b6101f8610606565b61020a61066c565b60405190815260200161017c565b6101f861022636600461291f565b610688565b6101f861023936600461291f565b6106b9565b6101cd61024c3660046128da565b6106d4565b6101f861025f366004612970565b61074b565b61020a610272366004612805565b6107ec565b6101f8610873565b6101f861028d366004612a3b565b6108a7565b6006546001600160a01b03166101cd565b6101cd6102b13660046128da565b610941565b6101ad610a09565b6101f86102cc366004612aed565b610a18565b610170610a23565b6101f86102e7366004612b4a565b610a4c565b6101ad6102fa3660046128da565b610a7e565b6101ad61030d366004612805565b610c29565b610170610320366004612bf9565b6001600160a01b03918216600090815260056020908152604080832093909416825291909152205460ff1690565b6101f861035c366004612805565b610d32565b60006001600160e01b031982166380ac58cd60e01b148061039257506001600160e01b03198216635b5e139f60e01b145b806103ad57506301ffc9a760e01b6001600160e01b03198316145b92915050565b6103bb612796565b6103ad82610dd6565b6060600080546103d390612c32565b80601f01602080910402602001604051908101604052809291908181526020018280546103ff90612c32565b801561044c5780601f106104215761010080835404028352916020019161044c565b820191906000526020600020905b81548152906001019060200180831161042f57829003601f168201915b5050505050905090565b6000818152600260205260408120546001600160a01b03166104d45760405162461bcd60e51b815260206004820152602c60248201527f4552433732313a20617070726f76656420717565727920666f72206e6f6e657860448201526b34b9ba32b73a103a37b5b2b760a11b60648201526084015b60405180910390fd5b506000908152600460205260409020546001600160a01b031690565b60006104fb826106d4565b9050806001600160a01b0316836001600160a01b031614156105695760405162461bcd60e51b815260206004820152602160248201527f4552433732313a20617070726f76616c20746f2063757272656e74206f776e656044820152603960f91b60648201526084016104cb565b336001600160a01b038216148061058557506105858133610320565b6105f75760405162461bcd60e51b815260206004820152603860248201527f4552433732313a20617070726f76652063616c6c6572206973206e6f74206f7760448201527f6e6572206e6f7220617070726f76656420666f7220616c6c000000000000000060648201526084016104cb565b61060183836110ba565b505050565b61060e610a23565b61064a5760405162461bcd60e51b815260206004820152600d60248201526c26b4b73a103737ba1037b832b760991b60448201526064016104cb565b61065c3361065760095490565b611128565b61066a600980546001019055565b565b6000600161067960095490565b6106839190612c83565b905090565b6106923382611276565b6106ae5760405162461bcd60e51b81526004016104cb90612c9a565b61060183838361136d565b61060183838360405180602001604052806000815250610a4c565b6000818152600260205260408120546001600160a01b0316806103ad5760405162461bcd60e51b815260206004820152602960248201527f4552433732313a206f776e657220717565727920666f72206e6f6e657869737460448201526832b73a103a37b5b2b760b91b60648201526084016104cb565b6006546001600160a01b031633146107755760405162461bcd60e51b81526004016104cb90612ceb565b60005b828110156107e657816007600086868581811061079757610797612d20565b90506020020160208101906107ac9190612805565b6001600160a01b031681526020810191909152604001600020805460ff1916911515919091179055806107de81612d36565b915050610778565b50505050565b60006001600160a01b0382166108575760405162461bcd60e51b815260206004820152602a60248201527f4552433732313a2062616c616e636520717565727920666f7220746865207a65604482015269726f206164647265737360b01b60648201526084016104cb565b506001600160a01b031660009081526003602052604090205490565b6006546001600160a01b0316331461089d5760405162461bcd60e51b81526004016104cb90612ceb565b61066a6000611514565b6108af610a23565b6108eb5760405162461bcd60e51b815260206004820152600d60248201526c26b4b73a103737ba1037b832b760991b60448201526064016104cb565b60005b815181101561093d5761091d82828151811061090c5761090c612d20565b602002602001015161065760095490565b61092b600980546001019055565b8061093581612d36565b9150506108ee565b5050565b6040516331a9108f60e11b81526004810182905260009081903090636352211e90602401602060405180830381865afa158015610982573d6000803e3d6000fd5b505050506040513d601f19601f820116820180604052508101906109a69190612d51565b6001600160a01b03811660009081526007602052604090205490915060ff1680156109e757506000838152600860205260409020546001600160a01b031615155b156103ad5750506000908152600860205260409020546001600160a01b031690565b6060600180546103d390612c32565b61093d338383611566565b60006361cfdfd0421180156106835750610a4462024ea06361cfdfd0612d6e565b421115905090565b610a563383611276565b610a725760405162461bcd60e51b81526004016104cb90612c9a565b6107e684848484611635565b6000818152600260205260409020546060906001600160a01b0316610ad05760405162461bcd60e51b81526020600482015260086024820152672737903a37b5b2b760c11b60448201526064016104cb565b60405162b86e3360e51b8152600481018390526000907f00000000000000000000000000000000000000000000000000000000000000006001600160a01b03169063170dc66090602401600060405180830381865afa158015610b37573d6000803e3d6000fd5b505050506040513d6000823e601f3d908101601f19168201604052610b5f9190810190612d86565b90507f00000000000000000000000000000000000000000000000000000000000000006001600160a01b031663d01fde8c828384610b9f61030d89610941565b604051602001610bb29493929190612e19565b6040516020818303038152906040526040518263ffffffff1660e01b8152600401610bdd91906128c7565b600060405180830381865afa158015610bfa573d6000803e3d6000fd5b505050506040513d6000823e601f3d908101601f19168201604052610c229190810190612d86565b9392505050565b60606000610c36836103b3565b80516020808301516040808501516060860151608087015192519697506000967f00000000000000000000000000000000000000000000000000000000000000006001600160a01b03169663d5fb1b1996610c979691959194939201612fd8565b6040516020818303038152906040526040518263ffffffff1660e01b8152600401610cc291906128c7565b600060405180830381865afa158015610cdf573d6000803e3d6000fd5b505050506040513d6000823e601f3d908101601f19168201604052610d079190810190612d86565b905080604051602001610d1a91906133f5565b60405160208183030381529060405292505050919050565b6006546001600160a01b03163314610d5c5760405162461bcd60e51b81526004016104cb90612ceb565b6001600160a01b038116610dc15760405162461bcd60e51b815260206004820152602660248201527f4f776e61626c653a206e6577206f776e657220697320746865207a65726f206160448201526564647265737360d01b60648201526084016104cb565b610dca81611514565b50565b80546001019055565b610dde612796565b6001600160a01b038216600060118260131a60180281610e0057610e0061343a565b0490506000602283601d1a60050281610e1b57610e1b61343a565b046020019050606160338460171a60050281610e3957610e3961343a565b0401604801600281049050600060108560181a81610e5957610e5961343a565b04605101905060006080866015600b91901a0260ff1681610e7c57610e7c61343a565b046046019050600a8203811115610e94575060091981015b6040805160a0810190915280610f0e610ec989601c1a60028b60191a81610ebd57610ebd61343a565b0660ff168a6000611668565b610ee960028b601c1a81610edf57610edf61343a565b06878760646117bc565b610f0960028c601a1a81610eff57610eff61343a565b068a8a6064611804565b61187c565b8152602001610f7c610f3c89601c1a60028b60191a81610f3057610f3061343a565b0660ff168a600a611668565b610f5c60028b601c1a81610f5257610f5261343a565b068787605a6117bc565b610f0960028c601a1a81610f7257610f7261343a565b068a8a605a611804565b8152602001610fea610faa89601c1a60028b60191a81610f9e57610f9e61343a565b0660ff168a6046611668565b610fca60028b601c1a81610fc057610fc061343a565b06878760466117bc565b610f0960028c601a1a81610fe057610fe061343a565b068a8a6046611804565b815260200161105861101889601c1a60028b60191a8161100c5761100c61343a565b0660ff168a605a611668565b61103860028b601c1a8161102e5761102e61343a565b06878760146117bc565b610f0960028c601a1a8161104e5761104e61343a565b068a8a6014611804565b81526020016110ac61108689601c1a60028b60191a8161107a5761107a61343a565b0660ff168a6064611668565b6110a660028b601c1a8161109c5761109c61343a565b06878760006117bc565b8861187c565b905298975050505050505050565b600081815260046020526040902080546001600160a01b0319166001600160a01b03841690811790915581906110ef826106d4565b6001600160a01b03167f8c5be1e5ebec7d5bd14f71427d1e84f3dd0314c0f7b2291e5b200ac8c7c3b92560405160405180910390a45050565b6001600160a01b03821661117e5760405162461bcd60e51b815260206004820181905260248201527f4552433732313a206d696e7420746f20746865207a65726f206164647265737360448201526064016104cb565b6000818152600260205260409020546001600160a01b0316156111e35760405162461bcd60e51b815260206004820152601c60248201527f4552433732313a20746f6b656e20616c7265616479206d696e7465640000000060448201526064016104cb565b6111ef600083836118c3565b6001600160a01b0382166000908152600360205260408120805460019290611218908490612d6e565b909155505060008181526002602052604080822080546001600160a01b0319166001600160a01b03861690811790915590518392907fddf252ad1be2c89b69c2b068fc378daa952ba7f163c4a11628f55a4df523b3ef908290a45050565b6000818152600260205260408120546001600160a01b03166112ef5760405162461bcd60e51b815260206004820152602c60248201527f4552433732313a206f70657261746f7220717565727920666f72206e6f6e657860448201526b34b9ba32b73a103a37b5b2b760a11b60648201526084016104cb565b60006112fa836106d4565b9050806001600160a01b0316846001600160a01b031614806113355750836001600160a01b031661132a84610456565b6001600160a01b0316145b8061136557506001600160a01b0380821660009081526005602090815260408083209388168352929052205460ff165b949350505050565b826001600160a01b0316611380826106d4565b6001600160a01b0316146113e45760405162461bcd60e51b815260206004820152602560248201527f4552433732313a207472616e736665722066726f6d20696e636f72726563742060448201526437bbb732b960d91b60648201526084016104cb565b6001600160a01b0382166114465760405162461bcd60e51b8152602060048201526024808201527f4552433732313a207472616e7366657220746f20746865207a65726f206164646044820152637265737360e01b60648201526084016104cb565b6114518383836118c3565b61145c6000826110ba565b6001600160a01b0383166000908152600360205260408120805460019290611485908490612c83565b90915550506001600160a01b03821660009081526003602052604081208054600192906114b3908490612d6e565b909155505060008181526002602052604080822080546001600160a01b0319166001600160a01b0386811691821790925591518493918716917fddf252ad1be2c89b69c2b068fc378daa952ba7f163c4a11628f55a4df523b3ef91a4505050565b600680546001600160a01b038381166001600160a01b0319831681179093556040519116919082907f8be0079c531659141344cd1fd0a4f28419497f9722a3daafe3b4186f6b6457e090600090a35050565b816001600160a01b0316836001600160a01b031614156115c85760405162461bcd60e51b815260206004820152601960248201527f4552433732313a20617070726f766520746f2063616c6c65720000000000000060448201526064016104cb565b6001600160a01b03838116600081815260056020908152604080832094871680845294825291829020805460ff191686151590811790915591519182527f17307eab39ab6107e8899845ad3d59bd9653f200f220920489ca2b5937696c31910160405180910390a3505050565b61164084848461136d565b61164c84848484611912565b6107e65760405162461bcd60e51b81526004016104cb90613450565b6000806116766004876134a2565b60ff16905083816116e3576116da861561169a5761169582600a6134c4565b6116a5565b6116a5600a83613505565b6116b29060ff8716613544565b826116c160ff88166064613505565b6116cb9190613544565b6116d591906134c4565b611a0d565b92505050611365565b816001141561170b576116da86156117005761169582601e6134c4565b6116a5601e83613505565b8160021415611766576116da861561172d576117288260326134c4565b611738565b611738603283613505565b6117448660ff16611a40565b61174e9190613544565b8261175b8760ff16611a40565b6116c1906064613505565b6117b160808860ff161161177b57600061177e565b60015b60ff16871561178e57603c611792565b603b195b61179c9190613544565b6117a690836134c4565b61173890601e6134c4565b979650505050505050565b60008060ff86166117ec576117d083611f36565b60ff169050606481810386028583020104600101915050611365565b50816064818103860285830201049695505050505050565b60008060ff86166118225761181883611f36565b60ff169050611831565b61182b83612292565b60ff1690505b606461183d85836135c9565b86611849846064612c83565b61185391906135c9565b61185d9190612d6e565b61186791906135e8565b611872906001612d6e565b9695505050505050565b606061188784612698565b61189084612698565b61189984612698565b6040516020016118ab939291906135fc565b60405160208183030381529060405290509392505050565b6001600160a01b03821660009081526007602052604090205460ff161561060157600081815260086020526040902080546001600160a01b0385166001600160a01b0319909116179055505050565b60006001600160a01b0384163b15611a0557604051630a85bd0160e11b81526001600160a01b0385169063150b7a029061195690339089908890889060040161367d565b6020604051808303816000875af1925050508015611991575060408051601f3d908101601f1916820190925261198e918101906136b0565b60015b6119eb573d8080156119bf576040519150601f19603f3d011682016040523d82523d6000602084013e6119c4565b606091505b5080516119e35760405162461bcd60e51b81526004016104cb90613450565b805181602001fd5b6001600160e01b031916630a85bd0160e11b149050611365565b506001611365565b606490056000808212611a2657610168825b0692915050565b610168826000190281611a1f57611a1f61343a565b919050565b6000600d8261ffff161015611a5757506000919050565b60118261ffff161015611a6c57506001919050565b60138261ffff161015611a8157506002919050565b60158261ffff161015611a9657506003919050565b60178261ffff161015611aab57506004919050565b60188261ffff161015611ac057506005919050565b60198261ffff161015611ad557506006919050565b601b8261ffff161015611aea57506007919050565b601c8261ffff161015611aff57506008919050565b601d8261ffff161015611b1457506009919050565b601e8261ffff161015611b295750600a919050565b601f8261ffff161015611b3e5750600b919050565b60208261ffff161015611b535750600d919050565b60218261ffff161015611b685750600e919050565b60228261ffff161015611b7d5750600f919050565b60238261ffff161015611b9257506011919050565b60248261ffff161015611ba757506012919050565b60258261ffff161015611bbc57506014919050565b60268261ffff161015611bd157506015919050565b60278261ffff161015611be657506017919050565b60288261ffff161015611bfb57506019919050565b60298261ffff161015611c105750601b919050565b602a8261ffff161015611c255750601d919050565b602b8261ffff161015611c3a5750601f919050565b602c8261ffff161015611c4f57506022919050565b602d8261ffff161015611c6457506024919050565b602e8261ffff161015611c7957506026919050565b602f8261ffff161015611c8e57506029919050565b60308261ffff161015611ca35750602c919050565b60318261ffff161015611cb85750602f919050565b60328261ffff161015611ccd57506032919050565b60338261ffff161015611ce257506034919050565b60348261ffff161015611cf757506037919050565b60358261ffff161015611d0c5750603a919050565b60368261ffff161015611d215750603d919050565b60378261ffff161015611d365750603f919050565b60388261ffff161015611d4b57506041919050565b60398261ffff161015611d6057506044919050565b603a8261ffff161015611d7557506046919050565b603b8261ffff161015611d8a57506048919050565b603c8261ffff161015611d9f5750604a919050565b603d8261ffff161015611db45750604c919050565b603e8261ffff161015611dc95750604e919050565b603f8261ffff161015611dde5750604f919050565b60408261ffff161015611df357506051919050565b60418261ffff161015611e0857506052919050565b60428261ffff161015611e1d57506054919050565b60438261ffff161015611e3257506055919050565b60448261ffff161015611e4757506056919050565b60458261ffff161015611e5c57506058919050565b60468261ffff161015611e7157506059919050565b60478261ffff161015611e865750605a919050565b60488261ffff161015611e9b5750605b919050565b604a8261ffff161015611eb05750605c919050565b604b8261ffff161015611ec55750605d919050565b604c8261ffff161015611eda5750605e919050565b604e8261ffff161015611eef5750605f919050565b60508261ffff161015611f0457506060919050565b60528261ffff161015611f1957506061919050565b60568261ffff161015611f2e57506062919050565b506063919050565b60006027821015611f4957506000919050565b602d821015611f5a57506001919050565b6031821015611f6b57506002919050565b6034821015611f7c57506003919050565b6035821015611f8d57506004919050565b6036821015611f9e57506004919050565b6037821015611faf57506005919050565b6038821015611fc057506005919050565b6039821015611fd157506006919050565b603a821015611fe257506006919050565b603b821015611ff357506007919050565b603c82101561200457506007919050565b603d82101561201557506008919050565b603e82101561202657506009919050565b603f82101561203757506009919050565b60408210156120485750600a919050565b60418210156120595750600b919050565b604282101561206a5750600c919050565b604382101561207b5750600d919050565b604482101561208c5750600e919050565b604582101561209d5750600f919050565b60468210156120ae57506010919050565b60478210156120bf57506012919050565b60488210156120d057506013919050565b60498210156120e157506014919050565b604a8210156120f257506016919050565b604b82101561210357506017919050565b604c82101561211457506019919050565b604d8210156121255750601b919050565b604e8210156121365750601c919050565b604f8210156121475750601e919050565b605082101561215857506020919050565b605182101561216957506022919050565b605282101561217a57506025919050565b605382101561218b57506027919050565b605482101561219c57506029919050565b60558210156121ad5750602c919050565b60568210156121be5750602f919050565b60578210156121cf57506031919050565b60588210156121e057506034919050565b60598210156121f157506037919050565b605a8210156122025750603b919050565b605b8210156122135750603e919050565b605c82101561222457506041919050565b605d82101561223557506045919050565b605e82101561224657506049919050565b605f8210156122575750604d919050565b606082101561226857506051919050565b606182101561227957506055919050565b606282101561228a5750605a919050565b50605f919050565b600060168210156122a557506000919050565b601c8210156122b657506001919050565b60208210156122c757506002919050565b60208210156122d857506003919050565b60228210156122e957506003919050565b60248210156122fa57506004919050565b602782101561230b57506005919050565b602982101561231c57506006919050565b602b82101561232d57506007919050565b602e82101561233e57506009919050565b602f82101561234f5750600a919050565b60318210156123605750600b919050565b60328210156123715750600c919050565b60338210156123825750600d919050565b60358210156123935750600e919050565b60368210156123a45750600f919050565b60378210156123b557506010919050565b60388210156123c657506011919050565b60398210156123d757506012919050565b603a8210156123e857506013919050565b603b8210156123f957506014919050565b603c82101561240a57506015919050565b603d82101561241b57506016919050565b603e82101561242c57506017919050565b603f82101561243d57506019919050565b604082101561244e5750601a919050565b604182101561245f5750601b919050565b60428210156124705750601c919050565b60438210156124815750601e919050565b60448210156124925750601f919050565b60458210156124a357506020919050565b60468210156124b457506022919050565b60478210156124c557506023919050565b60488210156124d657506025919050565b60498210156124e757506026919050565b604a8210156124f857506028919050565b604b8210156125095750602a919050565b604c82101561251a5750602b919050565b604d82101561252b5750602d919050565b604e82101561253c5750602f919050565b604f82101561254d57506031919050565b605082101561255e57506033919050565b605182101561256f57506035919050565b605282101561258057506037919050565b605382101561259157506039919050565b60548210156125a25750603b919050565b60558210156125b35750603d919050565b60568210156125c45750603f919050565b60578210156125d557506041919050565b60588210156125e657506044919050565b60598210156125f757506046919050565b605a82101561260857506048919050565b605b8210156126195750604b919050565b605c82101561262a5750604d919050565b605d82101561263b57506050919050565b605e82101561264c57506053919050565b605f82101561265d57506055919050565b606082101561266e57506058919050565b606182101561267f5750605b919050565b60628210156126905750605e919050565b506061919050565b6060816126bc5750506040805180820190915260018152600360fc1b602082015290565b8160005b81156126e657806126d081612d36565b91506126df9050600a836135e8565b91506126c0565b60008167ffffffffffffffff811115612701576127016129f4565b6040519080825280601f01601f19166020018201604052801561272b576020820181803683370190505b5090505b841561136557612740600183612c83565b915061274d600a866136cd565b612758906030612d6e565b60f81b81838151811061276d5761276d612d20565b60200101906001600160f81b031916908160001a90535061278f600a866135e8565b945061272f565b6040518060a001604052806005905b60608152602001906001900390816127a55790505090565b6001600160e01b031981168114610dca57600080fd5b6000602082840312156127e557600080fd5b8135610c22816127bd565b6001600160a01b0381168114610dca57600080fd5b60006020828403121561281757600080fd5b8135610c22816127f0565b60005b8381101561283d578181015183820152602001612825565b838111156107e65750506000910152565b60008151808452612866816020860160208601612822565b601f01601f19169290920160200192915050565b602080825260009060c0830183820185845b60058110156128bb57601f198785030183526128a984835161284e565b9350918401919084019060010161288c565b50919695505050505050565b602081526000610c22602083018461284e565b6000602082840312156128ec57600080fd5b5035919050565b6000806040838503121561290657600080fd5b8235612911816127f0565b946020939093013593505050565b60008060006060848603121561293457600080fd5b833561293f816127f0565b9250602084013561294f816127f0565b929592945050506040919091013590565b80358015158114611a3b57600080fd5b60008060006040848603121561298557600080fd5b833567ffffffffffffffff8082111561299d57600080fd5b818601915086601f8301126129b157600080fd5b8135818111156129c057600080fd5b8760208260051b85010111156129d557600080fd5b6020928301955093506129eb9186019050612960565b90509250925092565b634e487b7160e01b600052604160045260246000fd5b604051601f8201601f1916810167ffffffffffffffff81118282101715612a3357612a336129f4565b604052919050565b60006020808385031215612a4e57600080fd5b823567ffffffffffffffff80821115612a6657600080fd5b818501915085601f830112612a7a57600080fd5b813581811115612a8c57612a8c6129f4565b8060051b9150612a9d848301612a0a565b8181529183018401918481019088841115612ab757600080fd5b938501935b83851015612ae15784359250612ad1836127f0565b8282529385019390850190612abc565b98975050505050505050565b60008060408385031215612b0057600080fd5b8235612b0b816127f0565b9150612b1960208401612960565b90509250929050565b600067ffffffffffffffff821115612b3c57612b3c6129f4565b50601f01601f191660200190565b60008060008060808587031215612b6057600080fd5b8435612b6b816127f0565b93506020850135612b7b816127f0565b925060408501359150606085013567ffffffffffffffff811115612b9e57600080fd5b8501601f81018713612baf57600080fd5b8035612bc2612bbd82612b22565b612a0a565b818152886020838501011115612bd757600080fd5b8160208401602083013760006020838301015280935050505092959194509250565b60008060408385031215612c0c57600080fd5b8235612c17816127f0565b91506020830135612c27816127f0565b809150509250929050565b600181811c90821680612c4657607f821691505b60208210811415612c6757634e487b7160e01b600052602260045260246000fd5b50919050565b634e487b7160e01b600052601160045260246000fd5b600082821015612c9557612c95612c6d565b500390565b60208082526031908201527f4552433732313a207472616e736665722063616c6c6572206973206e6f74206f6040820152701ddb995c881b9bdc88185c1c1c9bdd9959607a1b606082015260800190565b6020808252818101527f4f776e61626c653a2063616c6c6572206973206e6f7420746865206f776e6572604082015260600190565b634e487b7160e01b600052603260045260246000fd5b6000600019821415612d4a57612d4a612c6d565b5060010190565b600060208284031215612d6357600080fd5b8151610c22816127f0565b60008219821115612d8157612d81612c6d565b500190565b600060208284031215612d9857600080fd5b815167ffffffffffffffff811115612daf57600080fd5b8201601f81018413612dc057600080fd5b8051612dce612bbd82612b22565b818152856020838501011115612de357600080fd5b612df4826020830160208601612822565b95945050505050565b60008151612e0f818560208601612822565b9290920192915050565b6f7b226e616d65223a20225a6f7262202360801b81528451600090612e45816010850160208a01612822565b7f222c20226465736372697074696f6e223a20225a6f72627320776572652064696010918401918201527f73747269627574656420666f722066726565206279205a4f5241206f6e204e6560308201527f772059656172e280997320323032322e2045616368204e465420696d6275657360508201527f207468652070726f70657274696573206f66206974732077616c6c657420686f60708201527f6c6465722c20616e64207768656e2073656e7420746f20736f6d656f6e65206560908201527f6c73652c2077696c6c207472616e73666f726d2e5c6e5c6e566965772074686960b08201527f73204e4654206174205b7a6f72622e6465762f6e66742f00000000000000000060d08201528551612f668160e7840160208a01612822565b612ae1612fca612fc4612faa612fa460e7868801017f5d2868747470733a2f2f7a6f72622e6465762f6e66742f000000000000000000815260170190565b8a612dfd565b6d149116101134b6b0b3b2911d101160911b8152600e0190565b87612dfd565b61227d60f01b815260020190565b7f3c73766720786d6c6e733d22687474703a2f2f7777772e77332e6f72672f323081527f30302f737667222076696577426f783d223020302031313020313130223e3c6460208201527f6566733e3c72616469616c4772616469656e742069643d22677a72222067726160408201527f6469656e745472616e73666f726d3d227472616e736c6174652836362e34353760608201527f382032342e3335373529207363616c652837352e32393038292220677261646960808201527f656e74556e6974733d227573657253706163654f6e5573652220723d2231222060a08201527f63783d2230222063793d223025223e3c73746f70206f66667365743d2231352e60c0820152701b1912911039ba37b816b1b7b637b91e9160791b60e08201526000865161310e8160f1850160208b01612822565b612ae161322561321f6131e96131e36131ab6131a561316d61316760f18a8d01017f22202f3e3c73746f70206f66667365743d2233392e353825222073746f702d6381526537b637b91e9160d11b602082015260260190565b8f612dfd565b7f22202f3e3c73746f70206f66667365743d2237322e393225222073746f702d6381526537b637b91e9160d11b602082015260260190565b8c612dfd565b7f22202f3e3c73746f70206f66667365743d2239302e363325222073746f702d6381526537b637b91e9160d11b602082015260260190565b89612dfd565b7f22202f3e3c73746f70206f66667365743d2231303025222073746f702d636f6c81526337b91e9160e11b602082015260240190565b86612dfd565b7f22202f3e3c2f72616469616c4772616469656e743e3c2f646566733e3c67207481527f72616e73666f726d3d227472616e736c61746528352c3529223e3c706174682060208201527f643d224d313030203530433130302032322e333835382037372e36313432203060408201527f20353020304332322e33383538203020302032322e333835382030203530433060608201527f2037372e363134322032322e3338353820313030203530203130304337372e3660808201527f31343220313030203130302037372e36313432203130302035305a222066696c60a08201527f6c3d2275726c2823677a722922202f3e3c70617468207374726f6b653d22726760c08201527f626128302c302c302c302e30373529222066696c6c3d227472616e737061726560e08201527f6e7422207374726f6b652d77696474683d22312220643d224d35302c302e35636101008201527f32372e332c302c34392e352c32322e322c34392e352c34392e355337372e332c6101208201527f39392e352c35302c39392e3553302e352c37372e332c302e352c35305332322e6101408201527f372c302e352c35302c302e357a22202f3e3c2f673e3c2f7376673e000000000061016082015261017b0190565b7f646174613a696d6167652f7376672b786d6c3b6261736536342c00000000000081526000825161342d81601a850160208701612822565b91909101601a0192915050565b634e487b7160e01b600052601260045260246000fd5b60208082526032908201527f4552433732313a207472616e7366657220746f206e6f6e20455243373231526560408201527131b2b4bb32b91034b6b83632b6b2b73a32b960711b606082015260800190565b600060ff8316806134b5576134b561343a565b8060ff84160691505092915050565b600080821280156001600160ff1b03849003851316156134e6576134e6612c6d565b600160ff1b83900384128116156134ff576134ff612c6d565b50500190565b60008083128015600160ff1b85018412161561352357613523612c6d565b6001600160ff1b038401831381161561353e5761353e612c6d565b50500390565b60006001600160ff1b038184138284138082168684048611161561356a5761356a612c6d565b600160ff1b600087128281168783058912161561358957613589612c6d565b600087129250878205871284841616156135a5576135a5612c6d565b878505871281841616156135bb576135bb612c6d565b505050929093029392505050565b60008160001904831182151516156135e3576135e3612c6d565b500290565b6000826135f7576135f761343a565b500490565b630d0e6d8560e31b81526000845161361b816004850160208901612822565b61016160f51b600491840191820152845161363d816006840160208901612822565b6201296160ed1b600692909101918201528351613661816009840160208801612822565b61252960f01b60099290910191820152600b0195945050505050565b6001600160a01b03858116825284166020820152604081018390526080606082018190526000906118729083018461284e565b6000602082840312156136c257600080fd5b8151610c22816127bd565b6000826136dc576136dc61343a565b50069056fea264697066735822122093448ad8696db12427765f606acb30aad0f43ea2587bb1a9f318b1db63ba4da064736f6c634300080a0033",
    "linkReferences": {}
  },
  "methodIdentifiers": {
    "airdrop(address[])": "729ad39e",
    "approve(address,uint256)": "095ea7b3",
    "balanceOf(address)": "70a08231",
    "getApproved(uint256)": "081812fc",
    "getZorbRenderAddress(uint256)": "91557ac4",
    "gradientForAddress(address)": "03ff85ff",
    "isApprovedForAll(address,address)": "e985e9c5",
    "mint()": "1249c58b",
    "mintIsOpen()": "aa1152ab",
    "name()": "06fdde03",
    "owner()": "8da5cb5b",
    "ownerOf(uint256)": "6352211e",
    "renounceOwnership()": "715018a6",
    "safeTransferFrom(address,address,uint256)": "42842e0e",
    "safeTransferFrom(address,address,uint256,bytes)": "b88d4fde",
    "setApprovalForAll(address,bool)": "a22cb465",
    "setKnownMarketplaces(address[],bool)": "6411fb45",
    "supportsInterface(bytes4)": "01ffc9a7",
    "symbol()": "95d89b41",
    "tokenURI(uint256)": "c87b56dd",
    "totalSupply()": "18160ddd",
    "transferFrom(address,address,uint256)": "23b872dd",
    "transferOwnership(address)": "f2fde38b",
    "zorbForAddress(address)": "de909942"
  },
  "id": 20
}